{
  "transactions": [
    {
      "hash": null,
      "transactionType": "CALL",
      "contractName": null,
      "contractAddress": "0x9b489dbc9b1d0d060872d9c252cd10def19f9de9",
      "function": null,
      "arguments": null,
      "transaction": {
        "from": "0x32fe11d9900d63350016374be98ff37c3af75847",
        "to": "0x9b489dbc9b1d0d060872d9c252cd10def19f9de9",
        "gas": "0x714d",
        "value": "0x354a6ba7a18000",
        "input": "0x",
        "nonce": "0x8",
        "chainId": "0x1205"
      },
      "additionalContracts": [],
      "isFixedGasLimit": false
    },
    {
      "hash": null,
      "transactionType": "CALL",
      "contractName": null,
      "contractAddress": "0x766f0c532051cf041eca37964066fc7a48a03f60",
      "function": null,
      "arguments": null,
      "transaction": {
        "from": "0x32fe11d9900d63350016374be98ff37c3af75847",
        "to": "0x766f0c532051cf041eca37964066fc7a48a03f60",
        "gas": "0x714d",
        "value": "0x354a6ba7a18000",
        "input": "0x",
        "nonce": "0x9",
        "chainId": "0x1205"
      },
      "additionalContracts": [],
      "isFixedGasLimit": false
    },
    {
      "hash": null,
      "transactionType": "CALL",
      "contractName": null,
      "contractAddress": "0xb98546927d36aff0e65e3d3bac51dda1b1c17c84",
      "function": null,
      "arguments": null,
      "transaction": {
        "from": "0x32fe11d9900d63350016374be98ff37c3af75847",
        "to": "0xb98546927d36aff0e65e3d3bac51dda1b1c17c84",
        "gas": "0x714d",
        "value": "0x354a6ba7a18000",
        "input": "0x",
        "nonce": "0xa",
        "chainId": "0x1205"
      },
      "additionalContracts": [],
      "isFixedGasLimit": false
    },
    {
      "hash": null,
      "transactionType": "CALL",
      "contractName": null,
      "contractAddress": "0xbbc9ac7dd79f0792b1bc3e5d5557e6605b2de184",
      "function": null,
      "arguments": null,
      "transaction": {
        "from": "0x32fe11d9900d63350016374be98ff37c3af75847",
        "to": "0xbbc9ac7dd79f0792b1bc3e5d5557e6605b2de184",
        "gas": "0x714d",
        "value": "0x354a6ba7a18000",
        "input": "0x",
        "nonce": "0xb",
        "chainId": "0x1205"
      },
      "additionalContracts": [],
      "isFixedGasLimit": false
    },
    {
      "hash": null,
      "transactionType": "CALL",
      "contractName": null,
      "contractAddress": "0xc42d8327f8a1a2d46c9e542d0e5458460b788dd9",
      "function": null,
      "arguments": null,
      "transaction": {
        "from": "0x32fe11d9900d63350016374be98ff37c3af75847",
        "to": "0xc42d8327f8a1a2d46c9e542d0e5458460b788dd9",
        "gas": "0x714d",
        "value": "0x354a6ba7a18000",
        "input": "0x",
        "nonce": "0xc",
        "chainId": "0x1205"
      },
      "additionalContracts": [],
      "isFixedGasLimit": false
    },
    {
      "hash": null,
      "transactionType": "CALL",
      "contractName": null,
      "contractAddress": "0x205aee312e997bbbf89f5f824e83fdbcce26cf71",
      "function": null,
      "arguments": null,
      "transaction": {
        "from": "0x32fe11d9900d63350016374be98ff37c3af75847",
        "to": "0x205aee312e997bbbf89f5f824e83fdbcce26cf71",
        "gas": "0x714d",
        "value": "0x354a6ba7a18000",
        "input": "0x",
        "nonce": "0xd",
        "chainId": "0x1205"
      },
      "additionalContracts": [],
      "isFixedGasLimit": false
    },
    {
      "hash": null,
      "transactionType": "CALL",
      "contractName": null,
      "contractAddress": "0x2a334770f49d539b90024c55e603a78f812b3614",
      "function": null,
      "arguments": null,
      "transaction": {
        "from": "0x32fe11d9900d63350016374be98ff37c3af75847",
        "to": "0x2a334770f49d539b90024c55e603a78f812b3614",
        "gas": "0x714d",
        "value": "0x354a6ba7a18000",
        "input": "0x",
        "nonce": "0xe",
        "chainId": "0x1205"
      },
      "additionalContracts": [],
      "isFixedGasLimit": false
    },
    {
      "hash": null,
      "transactionType": "CALL",
      "contractName": null,
      "contractAddress": "0xc46a10c783cce648ee7e8eb0869760ca06e72f02",
      "function": null,
      "arguments": null,
      "transaction": {
        "from": "0x32fe11d9900d63350016374be98ff37c3af75847",
        "to": "0xc46a10c783cce648ee7e8eb0869760ca06e72f02",
        "gas": "0x714d",
        "value": "0x354a6ba7a18000",
        "input": "0x",
        "nonce": "0xf",
        "chainId": "0x1205"
      },
      "additionalContracts": [],
      "isFixedGasLimit": false
    },
    {
      "hash": null,
      "transactionType": "CALL",
      "contractName": null,
      "contractAddress": "0x03513d2dac96a5562d9fd45fa9ac02dd8bac2942",
      "function": null,
      "arguments": null,
      "transaction": {
        "from": "0x32fe11d9900d63350016374be98ff37c3af75847",
        "to": "0x03513d2dac96a5562d9fd45fa9ac02dd8bac2942",
        "gas": "0x714d",
        "value": "0x354a6ba7a18000",
        "input": "0x",
        "nonce": "0x10",
        "chainId": "0x1205"
      },
      "additionalContracts": [],
      "isFixedGasLimit": false
    },
    {
      "hash": null,
      "transactionType": "CALL",
      "contractName": null,
      "contractAddress": "0xddb711e1594a8d6a35473cddad611043c8711ceb",
      "function": "createAndJoinCircle((string,uint256,uint256,uint256,uint256,uint256,uint8))",
      "arguments": [
        "(Moigye Test Circle Alpha, 1000000000000000, 60, 3, 3000000000000000, 1000, 2)"
      ],
      "transaction": {
        "from": "0x00cf200dee673bfc754aad36a6f9a9bf7603b134",
        "to": "0xddb711e1594a8d6a35473cddad611043c8711ceb",
        "gas": "0xaf6c2",
        "value": "0xaa87bee538000",
        "input": "0xdf0faf9c000000000000000000000000000000000000000000000000000000000000002000000000000000000000000000000000000000000000000000000000000000e000000000000000000000000000000000000000000000000000038d7ea4c68000000000000000000000000000000000000000000000000000000000000000003c0000000000000000000000000000000000000000000000000000000000000003000000000000000000000000000000000000000000000000000aa87bee53800000000000000000000000000000000000000000000000000000000000000003e8000000000000000000000000000000000000000000000000000000000000000200000000000000000000000000000000000000000000000000000000000000184d6f69677965205465737420436972636c6520416c7068610000000000000000",
        "nonce": "0x0",
        "chainId": "0x1205"
      },
      "additionalContracts": [
        {
          "transactionType": "CREATE",
          "address": "0x81fc634e39ace2240ed68e3c108d979ecc77e3f1",
          "initCode": "0x3d602d80600a3d3981f3363d3d373d3d3d363d73f34dcbc4721d0808c6efc98f3a739a98fd87a79a5af43d82803e903d91602b57fd5bf3"
        }
      ],
      "isFixedGasLimit": false
    },
    {
      "hash": null,
      "transactionType": "CALL",
      "contractName": null,
      "contractAddress": "0x81fc634e39ace2240ed68e3c108d979ecc77e3f1",
      "function": "join()",
      "arguments": [],
      "transaction": {
        "from": "0x9b489dbc9b1d0d060872d9c252cd10def19f9de9",
        "to": "0x81fc634e39ace2240ed68e3c108d979ecc77e3f1",
        "gas": "0x4aff0",
        "value": "0xaa87bee538000",
        "input": "0xb688a363",
        "nonce": "0x0",
        "chainId": "0x1205"
      },
      "additionalContracts": [],
      "isFixedGasLimit": false
    },
    {
      "hash": null,
      "transactionType": "CALL",
      "contractName": null,
      "contractAddress": "0x81fc634e39ace2240ed68e3c108d979ecc77e3f1",
      "function": "join()",
      "arguments": [],
      "transaction": {
        "from": "0x766f0c532051cf041eca37964066fc7a48a03f60",
        "to": "0x81fc634e39ace2240ed68e3c108d979ecc77e3f1",
        "gas": "0x4aff0",
        "value": "0xaa87bee538000",
        "input": "0xb688a363",
        "nonce": "0x0",
        "chainId": "0x1205"
      },
      "additionalContracts": [],
      "isFixedGasLimit": false
    },
    {
      "hash": null,
      "transactionType": "CALL",
      "contractName": null,
      "contractAddress": "0x81fc634e39ace2240ed68e3c108d979ecc77e3f1",
      "function": "startCircle()",
      "arguments": [],
      "transaction": {
        "from": "0x00cf200dee673bfc754aad36a6f9a9bf7603b134",
        "to": "0x81fc634e39ace2240ed68e3c108d979ecc77e3f1",
        "gas": "0x2fcce",
        "value": "0x0",
        "input": "0xe99daac9",
        "nonce": "0x1",
        "chainId": "0x1205"
      },
      "additionalContracts": [],
      "isFixedGasLimit": false
    },
    {
      "hash": null,
      "transactionType": "CALL",
      "contractName": null,
      "contractAddress": "0x81fc634e39ace2240ed68e3c108d979ecc77e3f1",
      "function": "contribute()",
      "arguments": [],
      "transaction": {
        "from": "0x00cf200dee673bfc754aad36a6f9a9bf7603b134",
        "to": "0x81fc634e39ace2240ed68e3c108d979ecc77e3f1",
        "gas": "0x1ddfd",
        "value": "0x38d7ea4c68000",
        "input": "0xd7bb99ba",
        "nonce": "0x2",
        "chainId": "0x1205"
      },
      "additionalContracts": [],
      "isFixedGasLimit": false
    },
    {
      "hash": null,
      "transactionType": "CALL",
      "contractName": null,
      "contractAddress": "0x81fc634e39ace2240ed68e3c108d979ecc77e3f1",
      "function": "contribute()",
      "arguments": [],
      "transaction": {
        "from": "0x9b489dbc9b1d0d060872d9c252cd10def19f9de9",
        "to": "0x81fc634e39ace2240ed68e3c108d979ecc77e3f1",
        "gas": "0x1986b",
        "value": "0x38d7ea4c68000",
        "input": "0xd7bb99ba",
        "nonce": "0x1",
        "chainId": "0x1205"
      },
      "additionalContracts": [],
      "isFixedGasLimit": false
    },
    {
      "hash": null,
      "transactionType": "CALL",
      "contractName": null,
      "contractAddress": "0x81fc634e39ace2240ed68e3c108d979ecc77e3f1",
      "function": "contribute()",
      "arguments": [],
      "transaction": {
        "from": "0x766f0c532051cf041eca37964066fc7a48a03f60",
        "to": "0x81fc634e39ace2240ed68e3c108d979ecc77e3f1",
        "gas": "0x1986b",
        "value": "0x38d7ea4c68000",
        "input": "0xd7bb99ba",
        "nonce": "0x1",
        "chainId": "0x1205"
      },
      "additionalContracts": [],
      "isFixedGasLimit": false
    },
    {
      "hash": null,
      "transactionType": "CALL",
      "contractName": null,
      "contractAddress": "0xddb711e1594a8d6a35473cddad611043c8711ceb",
      "function": "createAndJoinCircle((string,uint256,uint256,uint256,uint256,uint256,uint8))",
      "arguments": [
        "(Moigye Random Circle Beta, 500000000000000, 120, 5, 2000000000000000, 500, 1)"
      ],
      "transaction": {
        "from": "0xb98546927d36aff0e65e3d3bac51dda1b1c17c84",
        "to": "0xddb711e1594a8d6a35473cddad611043c8711ceb",
        "gas": "0xb713d",
        "value": "0x71afd498d0000",
        "input": "0xdf0faf9c000000000000000000000000000000000000000000000000000000000000002000000000000000000000000000000000000000000000000000000000000000e00000000000000000000000000000000000000000000000000001c6bf526340000000000000000000000000000000000000000000000000000000000000000078000000000000000000000000000000000000000000000000000000000000000500000000000000000000000000000000000000000000000000071afd498d000000000000000000000000000000000000000000000000000000000000000001f4000000000000000000000000000000000000000000000000000000000000000100000000000000000000000000000000000000000000000000000000000000194d6f696779652052616e646f6d20436972636c65204265746100000000000000",
        "nonce": "0x0",
        "chainId": "0x1205"
      },
      "additionalContracts": [
        {
          "transactionType": "CREATE",
          "address": "0x54bafb29453a49f9038b8d26ac4dc1bb652dba07",
          "initCode": "0x3d602d80600a3d3981f3363d3d373d3d3d363d73f34dcbc4721d0808c6efc98f3a739a98fd87a79a5af43d82803e903d91602b57fd5bf3"
        }
      ],
      "isFixedGasLimit": false
    },
    {
      "hash": null,
      "transactionType": "CALL",
      "contractName": null,
      "contractAddress": "0x54bafb29453a49f9038b8d26ac4dc1bb652dba07",
      "function": "join()",
      "arguments": [],
      "transaction": {
        "from": "0xbbc9ac7dd79f0792b1bc3e5d5557e6605b2de184",
        "to": "0x54bafb29453a49f9038b8d26ac4dc1bb652dba07",
        "gas": "0x4d8a5",
        "value": "0x71afd498d0000",
        "input": "0xb688a363",
        "nonce": "0x0",
        "chainId": "0x1205"
      },
      "additionalContracts": [],
      "isFixedGasLimit": false
    },
    {
      "hash": null,
      "transactionType": "CALL",
      "contractName": null,
      "contractAddress": "0x54bafb29453a49f9038b8d26ac4dc1bb652dba07",
      "function": "join()",
      "arguments": [],
      "transaction": {
        "from": "0xc42d8327f8a1a2d46c9e542d0e5458460b788dd9",
        "to": "0x54bafb29453a49f9038b8d26ac4dc1bb652dba07",
        "gas": "0x4d8a5",
        "value": "0x71afd498d0000",
        "input": "0xb688a363",
        "nonce": "0x0",
        "chainId": "0x1205"
      },
      "additionalContracts": [],
      "isFixedGasLimit": false
    },
    {
      "hash": null,
      "transactionType": "CALL",
      "contractName": null,
      "contractAddress": "0x54bafb29453a49f9038b8d26ac4dc1bb652dba07",
      "function": "join()",
      "arguments": [],
      "transaction": {
        "from": "0x205aee312e997bbbf89f5f824e83fdbcce26cf71",
        "to": "0x54bafb29453a49f9038b8d26ac4dc1bb652dba07",
        "gas": "0x4d8a5",
        "value": "0x71afd498d0000",
        "input": "0xb688a363",
        "nonce": "0x0",
        "chainId": "0x1205"
      },
      "additionalContracts": [],
      "isFixedGasLimit": false
    },
    {
      "hash": null,
      "transactionType": "CALL",
      "contractName": null,
      "contractAddress": "0x54bafb29453a49f9038b8d26ac4dc1bb652dba07",
      "function": "join()",
      "arguments": [],
      "transaction": {
        "from": "0x2a334770f49d539b90024c55e603a78f812b3614",
        "to": "0x54bafb29453a49f9038b8d26ac4dc1bb652dba07",
        "gas": "0x4d8a5",
        "value": "0x71afd498d0000",
        "input": "0xb688a363",
        "nonce": "0x0",
        "chainId": "0x1205"
      },
      "additionalContracts": [],
      "isFixedGasLimit": false
    },
    {
      "hash": null,
      "transactionType": "CALL",
      "contractName": null,
      "contractAddress": "0xddb711e1594a8d6a35473cddad611043c8711ceb",
      "function": "createAndJoinCircle((string,uint256,uint256,uint256,uint256,uint256,uint8))",
      "arguments": [
        "(Moigye Auction Circle Gamma, 200000000000000, 180, 10, 1000000000000000, 2000, 0)"
      ],
      "transaction": {
        "from": "0xc46a10c783cce648ee7e8eb0869760ca06e72f02",
        "to": "0xddb711e1594a8d6a35473cddad611043c8711ceb",
        "gas": "0xb05ef",
        "value": "0x38d7ea4c68000",
        "input": "0xdf0faf9c000000000000000000000000000000000000000000000000000000000000002000000000000000000000000000000000000000000000000000000000000000e00000000000000000000000000000000000000000000000000000b5e620f4800000000000000000000000000000000000000000000000000000000000000000b4000000000000000000000000000000000000000000000000000000000000000a00000000000000000000000000000000000000000000000000038d7ea4c6800000000000000000000000000000000000000000000000000000000000000007d00000000000000000000000000000000000000000000000000000000000000000000000000000000000000000000000000000000000000000000000000000001b4d6f696779652041756374696f6e20436972636c652047616d6d610000000000",
        "nonce": "0x0",
        "chainId": "0x1205"
      },
      "additionalContracts": [
        {
          "transactionType": "CREATE",
          "address": "0x8f1f79b4cf474e583a32d28da6f10a9f954416ae",
          "initCode": "0x3d602d80600a3d3981f3363d3d373d3d3d363d73f34dcbc4721d0808c6efc98f3a739a98fd87a79a5af43d82803e903d91602b57fd5bf3"
        }
      ],
      "isFixedGasLimit": false
    },
    {
      "hash": null,
      "transactionType": "CALL",
      "contractName": null,
      "contractAddress": "0x8f1f79b4cf474e583a32d28da6f10a9f954416ae",
      "function": "join()",
      "arguments": [],
      "transaction": {
        "from": "0x00cf200dee673bfc754aad36a6f9a9bf7603b134",
        "to": "0x8f1f79b4cf474e583a32d28da6f10a9f954416ae",
        "gas": "0x48994",
        "value": "0x38d7ea4c68000",
        "input": "0xb688a363",
        "nonce": "0x3",
        "chainId": "0x1205"
      },
      "additionalContracts": [],
      "isFixedGasLimit": false
    },
    {
      "hash": null,
      "transactionType": "CALL",
      "contractName": null,
      "contractAddress": "0x8f1f79b4cf474e583a32d28da6f10a9f954416ae",
      "function": "join()",
      "arguments": [],
      "transaction": {
        "from": "0x9b489dbc9b1d0d060872d9c252cd10def19f9de9",
        "to": "0x8f1f79b4cf474e583a32d28da6f10a9f954416ae",
        "gas": "0x48994",
        "value": "0x38d7ea4c68000",
        "input": "0xb688a363",
        "nonce": "0x2",
        "chainId": "0x1205"
      },
      "additionalContracts": [],
      "isFixedGasLimit": false
    },
    {
      "hash": null,
      "transactionType": "CALL",
      "contractName": null,
      "contractAddress": "0x8f1f79b4cf474e583a32d28da6f10a9f954416ae",
      "function": "join()",
      "arguments": [],
      "transaction": {
        "from": "0x766f0c532051cf041eca37964066fc7a48a03f60",
        "to": "0x8f1f79b4cf474e583a32d28da6f10a9f954416ae",
        "gas": "0x48994",
        "value": "0x38d7ea4c68000",
        "input": "0xb688a363",
        "nonce": "0x2",
        "chainId": "0x1205"
      },
      "additionalContracts": [],
      "isFixedGasLimit": false
    },
    {
      "hash": null,
      "transactionType": "CALL",
      "contractName": null,
      "contractAddress": "0x8f1f79b4cf474e583a32d28da6f10a9f954416ae",
      "function": "join()",
      "arguments": [],
      "transaction": {
        "from": "0xb98546927d36aff0e65e3d3bac51dda1b1c17c84",
        "to": "0x8f1f79b4cf474e583a32d28da6f10a9f954416ae",
        "gas": "0x48994",
        "value": "0x38d7ea4c68000",
        "input": "0xb688a363",
        "nonce": "0x1",
        "chainId": "0x1205"
      },
      "additionalContracts": [],
      "isFixedGasLimit": false
    },
    {
      "hash": null,
      "transactionType": "CALL",
      "contractName": null,
      "contractAddress": "0x8f1f79b4cf474e583a32d28da6f10a9f954416ae",
      "function": "join()",
      "arguments": [],
      "transaction": {
        "from": "0xbbc9ac7dd79f0792b1bc3e5d5557e6605b2de184",
        "to": "0x8f1f79b4cf474e583a32d28da6f10a9f954416ae",
        "gas": "0x48994",
        "value": "0x38d7ea4c68000",
        "input": "0xb688a363",
        "nonce": "0x1",
        "chainId": "0x1205"
      },
      "additionalContracts": [],
      "isFixedGasLimit": false
    },
    {
      "hash": null,
      "transactionType": "CALL",
      "contractName": null,
      "contractAddress": "0x8f1f79b4cf474e583a32d28da6f10a9f954416ae",
      "function": "join()",
      "arguments": [],
      "transaction": {
        "from": "0xc42d8327f8a1a2d46c9e542d0e5458460b788dd9",
        "to": "0x8f1f79b4cf474e583a32d28da6f10a9f954416ae",
        "gas": "0x48994",
        "value": "0x38d7ea4c68000",
        "input": "0xb688a363",
        "nonce": "0x1",
        "chainId": "0x1205"
      },
      "additionalContracts": [],
      "isFixedGasLimit": false
    },
    {
      "hash": null,
      "transactionType": "CALL",
      "contractName": null,
      "contractAddress": "0x8f1f79b4cf474e583a32d28da6f10a9f954416ae",
      "function": "join()",
      "arguments": [],
      "transaction": {
        "from": "0x205aee312e997bbbf89f5f824e83fdbcce26cf71",
        "to": "0x8f1f79b4cf474e583a32d28da6f10a9f954416ae",
        "gas": "0x48994",
        "value": "0x38d7ea4c68000",
        "input": "0xb688a363",
        "nonce": "0x1",
        "chainId": "0x1205"
      },
      "additionalContracts": [],
      "isFixedGasLimit": false
    },
    {
      "hash": null,
      "transactionType": "CALL",
      "contractName": null,
      "contractAddress": "0x8f1f79b4cf474e583a32d28da6f10a9f954416ae",
      "function": "join()",
      "arguments": [],
      "transaction": {
        "from": "0x2a334770f49d539b90024c55e603a78f812b3614",
        "to": "0x8f1f79b4cf474e583a32d28da6f10a9f954416ae",
        "gas": "0x48994",
        "value": "0x38d7ea4c68000",
        "input": "0xb688a363",
        "nonce": "0x1",
        "chainId": "0x1205"
      },
      "additionalContracts": [],
      "isFixedGasLimit": false
    },
    {
      "hash": null,
      "transactionType": "CALL",
      "contractName": null,
      "contractAddress": "0x8f1f79b4cf474e583a32d28da6f10a9f954416ae",
      "function": "join()",
      "arguments": [],
      "transaction": {
        "from": "0x03513d2dac96a5562d9fd45fa9ac02dd8bac2942",
        "to": "0x8f1f79b4cf474e583a32d28da6f10a9f954416ae",
        "gas": "0x4d8a5",
        "value": "0x38d7ea4c68000",
        "input": "0xb688a363",
        "nonce": "0x0",
        "chainId": "0x1205"
      },
      "additionalContracts": [],
      "isFixedGasLimit": false
    }
  ],
  "receipts": [],
  "libraries": [],
  "pending": [],
  "returns": {},
  "timestamp": 1767182482,
  "chain": 4613,
  "commit": null
}