{
  "transactions": [
    {
      "hash": null,
      "transactionType": "CALL",
      "contractName": null,
      "contractAddress": "0xdd7057343f2b71588fe69dbb236f2c0c6a866305",
      "function": null,
      "arguments": null,
      "transaction": {
        "from": "0x32fe11d9900d63350016374be98ff37c3af75847",
        "to": "0xdd7057343f2b71588fe69dbb236f2c0c6a866305",
        "value": "0x4db732547630000",
        "input": "0x",
        "nonce": "0x66",
        "chainId": "0x1205"
      },
      "additionalContracts": [],
      "isFixedGasLimit": false
    },
    {
      "hash": null,
      "transactionType": "CALL",
      "contractName": null,
      "contractAddress": "0x94d1b28a12510b43ff4a901912b7237ae4c38dcf",
      "function": null,
      "arguments": null,
      "transaction": {
        "from": "0x32fe11d9900d63350016374be98ff37c3af75847",
        "to": "0x94d1b28a12510b43ff4a901912b7237ae4c38dcf",
        "value": "0x4db732547630000",
        "input": "0x",
        "nonce": "0x67",
        "chainId": "0x1205"
      },
      "additionalContracts": [],
      "isFixedGasLimit": false
    },
    {
      "hash": null,
      "transactionType": "CALL",
      "contractName": null,
      "contractAddress": "0xe6813902689db553c9619a80678972c29ab2fdbb",
      "function": null,
      "arguments": null,
      "transaction": {
        "from": "0x32fe11d9900d63350016374be98ff37c3af75847",
        "to": "0xe6813902689db553c9619a80678972c29ab2fdbb",
        "value": "0x4db732547630000",
        "input": "0x",
        "nonce": "0x68",
        "chainId": "0x1205"
      },
      "additionalContracts": [],
      "isFixedGasLimit": false
    },
    {
      "hash": null,
      "transactionType": "CALL",
      "contractName": null,
      "contractAddress": "0xf2fa192ec525d25ddc34adff8620aabaf5e4990a",
      "function": "createAndJoinCircle((string,uint256,uint256,uint256,uint256,uint256,uint8))",
      "arguments": [
        "(서울 직장인 계모임, 10000000000000000, 604800, 5, 50000000000000000, 1000, 2)"
      ],
      "transaction": {
        "from": "0xe0881509844f0f81b2dab27299498db7013cc985",
        "to": "0xf2fa192ec525d25ddc34adff8620aabaf5e4990a",
        "value": "0xb1a2bc2ec50000",
        "input": "0xdf0faf9c000000000000000000000000000000000000000000000000000000000000002000000000000000000000000000000000000000000000000000000000000000e0000000000000000000000000000000000000000000000000002386f26fc100000000000000000000000000000000000000000000000000000000000000093a80000000000000000000000000000000000000000000000000000000000000000500000000000000000000000000000000000000000000000000b1a2bc2ec5000000000000000000000000000000000000000000000000000000000000000003e80000000000000000000000000000000000000000000000000000000000000002000000000000000000000000000000000000000000000000000000000000001aec849cec9ab820eca781ec9ea5ec9db820eab384ebaaa8ec9e84000000000000",
        "nonce": "0x0",
        "chainId": "0x1205"
      },
      "additionalContracts": [],
      "isFixedGasLimit": false
    },
    {
      "hash": null,
      "transactionType": "CALL",
      "contractName": null,
      "contractAddress": "0xa7c36526efd51e53d181d540b0acdbb66e9d98dd",
      "function": "join()",
      "arguments": [],
      "transaction": {
        "from": "0xa6eb04720736b660007eafba02b21e706e778530",
        "to": "0xa7c36526efd51e53d181d540b0acdbb66e9d98dd",
        "value": "0xb1a2bc2ec50000",
        "input": "0xb688a363",
        "nonce": "0x0",
        "chainId": "0x1205"
      },
      "additionalContracts": [],
      "isFixedGasLimit": false
    },
    {
      "hash": null,
      "transactionType": "CALL",
      "contractName": null,
      "contractAddress": "0xa7c36526efd51e53d181d540b0acdbb66e9d98dd",
      "function": "join()",
      "arguments": [],
      "transaction": {
        "from": "0x90a94d90a7827c171d944f6371df9479301512ad",
        "to": "0xa7c36526efd51e53d181d540b0acdbb66e9d98dd",
        "value": "0xb1a2bc2ec50000",
        "input": "0xb688a363",
        "nonce": "0x0",
        "chainId": "0x1205"
      },
      "additionalContracts": [],
      "isFixedGasLimit": false
    },
    {
      "hash": null,
      "transactionType": "CALL",
      "contractName": null,
      "contractAddress": "0xa7c36526efd51e53d181d540b0acdbb66e9d98dd",
      "function": "join()",
      "arguments": [],
      "transaction": {
        "from": "0xa2e7d1f28c2a093680558efae7cf89324372e9aa",
        "to": "0xa7c36526efd51e53d181d540b0acdbb66e9d98dd",
        "value": "0xb1a2bc2ec50000",
        "input": "0xb688a363",
        "nonce": "0x0",
        "chainId": "0x1205"
      },
      "additionalContracts": [],
      "isFixedGasLimit": false
    },
    {
      "hash": null,
      "transactionType": "CALL",
      "contractName": null,
      "contractAddress": "0xa7c36526efd51e53d181d540b0acdbb66e9d98dd",
      "function": "join()",
      "arguments": [],
      "transaction": {
        "from": "0x597f8990a5c2e31bd19e2b4473b20a0f6358d532",
        "to": "0xa7c36526efd51e53d181d540b0acdbb66e9d98dd",
        "value": "0xb1a2bc2ec50000",
        "input": "0xb688a363",
        "nonce": "0x0",
        "chainId": "0x1205"
      },
      "additionalContracts": [],
      "isFixedGasLimit": false
    },
    {
      "hash": null,
      "transactionType": "CALL",
      "contractName": null,
      "contractAddress": "0xa7c36526efd51e53d181d540b0acdbb66e9d98dd",
      "function": "startCircle()",
      "arguments": [],
      "transaction": {
        "from": "0xe0881509844f0f81b2dab27299498db7013cc985",
        "to": "0xa7c36526efd51e53d181d540b0acdbb66e9d98dd",
        "value": "0x0",
        "input": "0xe99daac9",
        "nonce": "0x1",
        "chainId": "0x1205"
      },
      "additionalContracts": [],
      "isFixedGasLimit": false
    },
    {
      "hash": null,
      "transactionType": "CALL",
      "contractName": null,
      "contractAddress": "0xa7c36526efd51e53d181d540b0acdbb66e9d98dd",
      "function": "contribute()",
      "arguments": [],
      "transaction": {
        "from": "0xe0881509844f0f81b2dab27299498db7013cc985",
        "to": "0xa7c36526efd51e53d181d540b0acdbb66e9d98dd",
        "value": "0x2386f26fc10000",
        "input": "0xd7bb99ba",
        "nonce": "0x2",
        "chainId": "0x1205"
      },
      "additionalContracts": [],
      "isFixedGasLimit": false
    },
    {
      "hash": null,
      "transactionType": "CALL",
      "contractName": null,
      "contractAddress": "0xa7c36526efd51e53d181d540b0acdbb66e9d98dd",
      "function": "contribute()",
      "arguments": [],
      "transaction": {
        "from": "0xa6eb04720736b660007eafba02b21e706e778530",
        "to": "0xa7c36526efd51e53d181d540b0acdbb66e9d98dd",
        "value": "0x2386f26fc10000",
        "input": "0xd7bb99ba",
        "nonce": "0x1",
        "chainId": "0x1205"
      },
      "additionalContracts": [],
      "isFixedGasLimit": false
    },
    {
      "hash": null,
      "transactionType": "CALL",
      "contractName": null,
      "contractAddress": "0xa7c36526efd51e53d181d540b0acdbb66e9d98dd",
      "function": "contribute()",
      "arguments": [],
      "transaction": {
        "from": "0x90a94d90a7827c171d944f6371df9479301512ad",
        "to": "0xa7c36526efd51e53d181d540b0acdbb66e9d98dd",
        "value": "0x2386f26fc10000",
        "input": "0xd7bb99ba",
        "nonce": "0x1",
        "chainId": "0x1205"
      },
      "additionalContracts": [],
      "isFixedGasLimit": false
    },
    {
      "hash": null,
      "transactionType": "CALL",
      "contractName": null,
      "contractAddress": "0xa7c36526efd51e53d181d540b0acdbb66e9d98dd",
      "function": "contribute()",
      "arguments": [],
      "transaction": {
        "from": "0xa2e7d1f28c2a093680558efae7cf89324372e9aa",
        "to": "0xa7c36526efd51e53d181d540b0acdbb66e9d98dd",
        "value": "0x2386f26fc10000",
        "input": "0xd7bb99ba",
        "nonce": "0x1",
        "chainId": "0x1205"
      },
      "additionalContracts": [],
      "isFixedGasLimit": false
    },
    {
      "hash": null,
      "transactionType": "CALL",
      "contractName": null,
      "contractAddress": "0xa7c36526efd51e53d181d540b0acdbb66e9d98dd",
      "function": "contribute()",
      "arguments": [],
      "transaction": {
        "from": "0x597f8990a5c2e31bd19e2b4473b20a0f6358d532",
        "to": "0xa7c36526efd51e53d181d540b0acdbb66e9d98dd",
        "value": "0x2386f26fc10000",
        "input": "0xd7bb99ba",
        "nonce": "0x1",
        "chainId": "0x1205"
      },
      "additionalContracts": [],
      "isFixedGasLimit": false
    },
    {
      "hash": null,
      "transactionType": "CALL",
      "contractName": null,
      "contractAddress": "0xf2fa192ec525d25ddc34adff8620aabaf5e4990a",
      "function": "createAndJoinCircle((string,uint256,uint256,uint256,uint256,uint256,uint8))",
      "arguments": [
        "(대학 동문 계, 5000000000000000, 2592000, 8, 40000000000000000, 500, 0)"
      ],
      "transaction": {
        "from": "0xb4613c15271283bd261f7f9332e1e333cc385408",
        "to": "0xf2fa192ec525d25ddc34adff8620aabaf5e4990a",
        "value": "0x8e1bc9bf040000",
        "input": "0xdf0faf9c000000000000000000000000000000000000000000000000000000000000002000000000000000000000000000000000000000000000000000000000000000e00000000000000000000000000000000000000000000000000011c37937e080000000000000000000000000000000000000000000000000000000000000278d000000000000000000000000000000000000000000000000000000000000000008000000000000000000000000000000000000000000000000008e1bc9bf04000000000000000000000000000000000000000000000000000000000000000001f400000000000000000000000000000000000000000000000000000000000000000000000000000000000000000000000000000000000000000000000000000011eb8c80ed959920eb8f99ebacb820eab384000000000000000000000000000000",
        "nonce": "0x0",
        "chainId": "0x1205"
      },
      "additionalContracts": [],
      "isFixedGasLimit": false
    },
    {
      "hash": null,
      "transactionType": "CALL",
      "contractName": null,
      "contractAddress": "0x3b138cd8c9af12c612db61f533ae055cca0144f7",
      "function": "join()",
      "arguments": [],
      "transaction": {
        "from": "0x70b6c3362b652328d4188babde8e9b914a35572b",
        "to": "0x3b138cd8c9af12c612db61f533ae055cca0144f7",
        "value": "0x8e1bc9bf040000",
        "input": "0xb688a363",
        "nonce": "0x0",
        "chainId": "0x1205"
      },
      "additionalContracts": [],
      "isFixedGasLimit": false
    },
    {
      "hash": null,
      "transactionType": "CALL",
      "contractName": null,
      "contractAddress": "0x3b138cd8c9af12c612db61f533ae055cca0144f7",
      "function": "join()",
      "arguments": [],
      "transaction": {
        "from": "0xf76e16bb907755266d84690eceeb12103564497b",
        "to": "0x3b138cd8c9af12c612db61f533ae055cca0144f7",
        "value": "0x8e1bc9bf040000",
        "input": "0xb688a363",
        "nonce": "0x0",
        "chainId": "0x1205"
      },
      "additionalContracts": [],
      "isFixedGasLimit": false
    },
    {
      "hash": null,
      "transactionType": "CALL",
      "contractName": null,
      "contractAddress": "0x3b138cd8c9af12c612db61f533ae055cca0144f7",
      "function": "join()",
      "arguments": [],
      "transaction": {
        "from": "0x3c78626a1e115e1b29de1060e19345ee0101481c",
        "to": "0x3b138cd8c9af12c612db61f533ae055cca0144f7",
        "value": "0x8e1bc9bf040000",
        "input": "0xb688a363",
        "nonce": "0x0",
        "chainId": "0x1205"
      },
      "additionalContracts": [],
      "isFixedGasLimit": false
    },
    {
      "hash": null,
      "transactionType": "CALL",
      "contractName": null,
      "contractAddress": "0x3b138cd8c9af12c612db61f533ae055cca0144f7",
      "function": "join()",
      "arguments": [],
      "transaction": {
        "from": "0xdd7057343f2b71588fe69dbb236f2c0c6a866305",
        "to": "0x3b138cd8c9af12c612db61f533ae055cca0144f7",
        "value": "0x8e1bc9bf040000",
        "input": "0xb688a363",
        "nonce": "0x0",
        "chainId": "0x1205"
      },
      "additionalContracts": [],
      "isFixedGasLimit": false
    },
    {
      "hash": null,
      "transactionType": "CALL",
      "contractName": null,
      "contractAddress": "0x3b138cd8c9af12c612db61f533ae055cca0144f7",
      "function": "join()",
      "arguments": [],
      "transaction": {
        "from": "0x94d1b28a12510b43ff4a901912b7237ae4c38dcf",
        "to": "0x3b138cd8c9af12c612db61f533ae055cca0144f7",
        "value": "0x8e1bc9bf040000",
        "input": "0xb688a363",
        "nonce": "0x0",
        "chainId": "0x1205"
      },
      "additionalContracts": [],
      "isFixedGasLimit": false
    },
    {
      "hash": null,
      "transactionType": "CALL",
      "contractName": null,
      "contractAddress": "0x3b138cd8c9af12c612db61f533ae055cca0144f7",
      "function": "join()",
      "arguments": [],
      "transaction": {
        "from": "0xe6813902689db553c9619a80678972c29ab2fdbb",
        "to": "0x3b138cd8c9af12c612db61f533ae055cca0144f7",
        "value": "0x8e1bc9bf040000",
        "input": "0xb688a363",
        "nonce": "0x0",
        "chainId": "0x1205"
      },
      "additionalContracts": [],
      "isFixedGasLimit": false
    },
    {
      "hash": null,
      "transactionType": "CALL",
      "contractName": null,
      "contractAddress": "0x3b138cd8c9af12c612db61f533ae055cca0144f7",
      "function": "join()",
      "arguments": [],
      "transaction": {
        "from": "0xe0881509844f0f81b2dab27299498db7013cc985",
        "to": "0x3b138cd8c9af12c612db61f533ae055cca0144f7",
        "value": "0x8e1bc9bf040000",
        "input": "0xb688a363",
        "nonce": "0x3",
        "chainId": "0x1205"
      },
      "additionalContracts": [],
      "isFixedGasLimit": false
    },
    {
      "hash": null,
      "transactionType": "CALL",
      "contractName": null,
      "contractAddress": "0x3b138cd8c9af12c612db61f533ae055cca0144f7",
      "function": "startCircle()",
      "arguments": [],
      "transaction": {
        "from": "0xb4613c15271283bd261f7f9332e1e333cc385408",
        "to": "0x3b138cd8c9af12c612db61f533ae055cca0144f7",
        "value": "0x0",
        "input": "0xe99daac9",
        "nonce": "0x1",
        "chainId": "0x1205"
      },
      "additionalContracts": [],
      "isFixedGasLimit": false
    },
    {
      "hash": null,
      "transactionType": "CALL",
      "contractName": null,
      "contractAddress": "0x3b138cd8c9af12c612db61f533ae055cca0144f7",
      "function": "contribute()",
      "arguments": [],
      "transaction": {
        "from": "0xb4613c15271283bd261f7f9332e1e333cc385408",
        "to": "0x3b138cd8c9af12c612db61f533ae055cca0144f7",
        "value": "0x11c37937e08000",
        "input": "0xd7bb99ba",
        "nonce": "0x2",
        "chainId": "0x1205"
      },
      "additionalContracts": [],
      "isFixedGasLimit": false
    },
    {
      "hash": null,
      "transactionType": "CALL",
      "contractName": null,
      "contractAddress": "0x3b138cd8c9af12c612db61f533ae055cca0144f7",
      "function": "contribute()",
      "arguments": [],
      "transaction": {
        "from": "0x70b6c3362b652328d4188babde8e9b914a35572b",
        "to": "0x3b138cd8c9af12c612db61f533ae055cca0144f7",
        "value": "0x11c37937e08000",
        "input": "0xd7bb99ba",
        "nonce": "0x1",
        "chainId": "0x1205"
      },
      "additionalContracts": [],
      "isFixedGasLimit": false
    },
    {
      "hash": null,
      "transactionType": "CALL",
      "contractName": null,
      "contractAddress": "0x3b138cd8c9af12c612db61f533ae055cca0144f7",
      "function": "contribute()",
      "arguments": [],
      "transaction": {
        "from": "0xf76e16bb907755266d84690eceeb12103564497b",
        "to": "0x3b138cd8c9af12c612db61f533ae055cca0144f7",
        "value": "0x11c37937e08000",
        "input": "0xd7bb99ba",
        "nonce": "0x1",
        "chainId": "0x1205"
      },
      "additionalContracts": [],
      "isFixedGasLimit": false
    },
    {
      "hash": null,
      "transactionType": "CALL",
      "contractName": null,
      "contractAddress": "0xf2fa192ec525d25ddc34adff8620aabaf5e4990a",
      "function": "createAndJoinCircle((string,uint256,uint256,uint256,uint256,uint256,uint8))",
      "arguments": [
        "(강남 부동산 스터디 계, 20000000000000000, 604800, 10, 100000000000000000, 2000, 1)"
      ],
      "transaction": {
        "from": "0xa6eb04720736b660007eafba02b21e706e778530",
        "to": "0xf2fa192ec525d25ddc34adff8620aabaf5e4990a",
        "value": "0x16345785d8a0000",
        "input": "0xdf0faf9c000000000000000000000000000000000000000000000000000000000000002000000000000000000000000000000000000000000000000000000000000000e000000000000000000000000000000000000000000000000000470de4df8200000000000000000000000000000000000000000000000000000000000000093a80000000000000000000000000000000000000000000000000000000000000000a000000000000000000000000000000000000000000000000016345785d8a000000000000000000000000000000000000000000000000000000000000000007d00000000000000000000000000000000000000000000000000000000000000001000000000000000000000000000000000000000000000000000000000000001eeab095eb82a820ebb680eb8f99ec82b020ec8aa4ed84b0eb949420eab3840000",
        "nonce": "0x2",
        "chainId": "0x1205"
      },
      "additionalContracts": [],
      "isFixedGasLimit": false
    },
    {
      "hash": null,
      "transactionType": "CALL",
      "contractName": null,
      "contractAddress": "0xf2fa192ec525d25ddc34adff8620aabaf5e4990a",
      "function": "createAndJoinCircle((string,uint256,uint256,uint256,uint256,uint256,uint8))",
      "arguments": [
        "(20대 재테크 모임, 2000000000000000, 604800, 4, 10000000000000000, 500, 2)"
      ],
      "transaction": {
        "from": "0x90a94d90a7827c171d944f6371df9479301512ad",
        "to": "0xf2fa192ec525d25ddc34adff8620aabaf5e4990a",
        "value": "0x2386f26fc10000",
        "input": "0xdf0faf9c000000000000000000000000000000000000000000000000000000000000002000000000000000000000000000000000000000000000000000000000000000e000000000000000000000000000000000000000000000000000071afd498d00000000000000000000000000000000000000000000000000000000000000093a800000000000000000000000000000000000000000000000000000000000000004000000000000000000000000000000000000000000000000002386f26fc1000000000000000000000000000000000000000000000000000000000000000001f4000000000000000000000000000000000000000000000000000000000000000200000000000000000000000000000000000000000000000000000000000000163230eb8c8020ec9eaced858ced81ac20ebaaa8ec9e8400000000000000000000",
        "nonce": "0x2",
        "chainId": "0x1205"
      },
      "additionalContracts": [],
      "isFixedGasLimit": false
    },
    {
      "hash": null,
      "transactionType": "CALL",
      "contractName": null,
      "contractAddress": "0xf2fa192ec525d25ddc34adff8620aabaf5e4990a",
      "function": "createAndJoinCircle((string,uint256,uint256,uint256,uint256,uint256,uint8))",
      "arguments": [
        "(월급쟁이 저축 계, 8000000000000000, 2592000, 12, 50000000000000000, 1500, 0)"
      ],
      "transaction": {
        "from": "0xa2e7d1f28c2a093680558efae7cf89324372e9aa",
        "to": "0xf2fa192ec525d25ddc34adff8620aabaf5e4990a",
        "value": "0xb1a2bc2ec50000",
        "input": "0xdf0faf9c000000000000000000000000000000000000000000000000000000000000002000000000000000000000000000000000000000000000000000000000000000e0000000000000000000000000000000000000000000000000001c6bf5263400000000000000000000000000000000000000000000000000000000000000278d00000000000000000000000000000000000000000000000000000000000000000c00000000000000000000000000000000000000000000000000b1a2bc2ec5000000000000000000000000000000000000000000000000000000000000000005dc00000000000000000000000000000000000000000000000000000000000000000000000000000000000000000000000000000000000000000000000000000017ec9b94eab889ec9f81ec9db420eca080ecb69520eab384000000000000000000",
        "nonce": "0x2",
        "chainId": "0x1205"
      },
      "additionalContracts": [],
      "isFixedGasLimit": false
    },
    {
      "hash": null,
      "transactionType": "CALL",
      "contractName": null,
      "contractAddress": "0xf2fa192ec525d25ddc34adff8620aabaf5e4990a",
      "function": "createAndJoinCircle((string,uint256,uint256,uint256,uint256,uint256,uint8))",
      "arguments": [
        "(친구들 소액 계, 1000000000000000, 604800, 3, 5000000000000000, 1000, 1)"
      ],
      "transaction": {
        "from": "0x597f8990a5c2e31bd19e2b4473b20a0f6358d532",
        "to": "0xf2fa192ec525d25ddc34adff8620aabaf5e4990a",
        "value": "0x11c37937e08000",
        "input": "0xdf0faf9c000000000000000000000000000000000000000000000000000000000000002000000000000000000000000000000000000000000000000000000000000000e000000000000000000000000000000000000000000000000000038d7ea4c680000000000000000000000000000000000000000000000000000000000000093a8000000000000000000000000000000000000000000000000000000000000000030000000000000000000000000000000000000000000000000011c37937e0800000000000000000000000000000000000000000000000000000000000000003e800000000000000000000000000000000000000000000000000000000000000010000000000000000000000000000000000000000000000000000000000000014ecb99ceab5aceb93a420ec868cec95a120eab384000000000000000000000000",
        "nonce": "0x2",
        "chainId": "0x1205"
      },
      "additionalContracts": [],
      "isFixedGasLimit": false
    },
    {
      "hash": null,
      "transactionType": "CALL",
      "contractName": null,
      "contractAddress": "0xf2fa192ec525d25ddc34adff8620aabaf5e4990a",
      "function": "createAndJoinCircle((string,uint256,uint256,uint256,uint256,uint256,uint8))",
      "arguments": [
        "(프리미엄 VIP 계, 15000000000000000, 2592000, 6, 80000000000000000, 2500, 2)"
      ],
      "transaction": {
        "from": "0x70b6c3362b652328d4188babde8e9b914a35572b",
        "to": "0xf2fa192ec525d25ddc34adff8620aabaf5e4990a",
        "value": "0x11c37937e080000",
        "input": "0xdf0faf9c000000000000000000000000000000000000000000000000000000000000002000000000000000000000000000000000000000000000000000000000000000e000000000000000000000000000000000000000000000000000354a6ba7a180000000000000000000000000000000000000000000000000000000000000278d000000000000000000000000000000000000000000000000000000000000000006000000000000000000000000000000000000000000000000011c37937e08000000000000000000000000000000000000000000000000000000000000000009c400000000000000000000000000000000000000000000000000000000000000020000000000000000000000000000000000000000000000000000000000000014ed9484eba6acebafb8ec97842056495020eab384000000000000000000000000",
        "nonce": "0x2",
        "chainId": "0x1205"
      },
      "additionalContracts": [],
      "isFixedGasLimit": false
    }
  ],
  "receipts": [],
  "libraries": [],
  "pending": [],
  "returns": {},
  "timestamp": 1767426472,
  "chain": 4613,
  "commit": "b12afeb"
}