{
  "transactions": [
    {
      "hash": null,
      "transactionType": "CALL",
      "contractName": null,
      "contractAddress": "0xddb711e1594a8d6a35473cddad611043c8711ceb",
      "function": "createAndJoinCircle((string,uint256,uint256,uint256,uint256,uint256,uint8))",
      "arguments": [
        "(Moigye Test Alpha, 1000000000000000, 300, 2, 2000000000000000, 1000, 2)"
      ],
      "transaction": {
        "from": "0x32fe11d9900d63350016374be98ff37c3af75847",
        "to": "0xddb711e1594a8d6a35473cddad611043c8711ceb",
        "gas": "0xaf64f",
        "value": "0x71afd498d0000",
        "input": "0xdf0faf9c000000000000000000000000000000000000000000000000000000000000002000000000000000000000000000000000000000000000000000000000000000e000000000000000000000000000000000000000000000000000038d7ea4c68000000000000000000000000000000000000000000000000000000000000000012c000000000000000000000000000000000000000000000000000000000000000200000000000000000000000000000000000000000000000000071afd498d000000000000000000000000000000000000000000000000000000000000000003e8000000000000000000000000000000000000000000000000000000000000000200000000000000000000000000000000000000000000000000000000000000114d6f69677965205465737420416c706861000000000000000000000000000000",
        "nonce": "0x1a",
        "chainId": "0x1205"
      },
      "additionalContracts": [
        {
          "transactionType": "CREATE",
          "address": "0x81fc634e39ace2240ed68e3c108d979ecc77e3f1",
          "initCode": "0x3d602d80600a3d3981f3363d3d373d3d3d363d73f34dcbc4721d0808c6efc98f3a739a98fd87a79a5af43d82803e903d91602b57fd5bf3"
        }
      ],
      "isFixedGasLimit": false
    },
    {
      "hash": null,
      "transactionType": "CALL",
      "contractName": null,
      "contractAddress": "0xddb711e1594a8d6a35473cddad611043c8711ceb",
      "function": "createAndJoinCircle((string,uint256,uint256,uint256,uint256,uint256,uint8))",
      "arguments": [
        "(Moigye Test Beta, 500000000000000, 600, 3, 1000000000000000, 500, 1)"
      ],
      "transaction": {
        "from": "0x32fe11d9900d63350016374be98ff37c3af75847",
        "to": "0xddb711e1594a8d6a35473cddad611043c8711ceb",
        "gas": "0xb21b8",
        "value": "0x38d7ea4c68000",
        "input": "0xdf0faf9c000000000000000000000000000000000000000000000000000000000000002000000000000000000000000000000000000000000000000000000000000000e00000000000000000000000000000000000000000000000000001c6bf526340000000000000000000000000000000000000000000000000000000000000000258000000000000000000000000000000000000000000000000000000000000000300000000000000000000000000000000000000000000000000038d7ea4c6800000000000000000000000000000000000000000000000000000000000000001f4000000000000000000000000000000000000000000000000000000000000000100000000000000000000000000000000000000000000000000000000000000104d6f696779652054657374204265746100000000000000000000000000000000",
        "nonce": "0x1b",
        "chainId": "0x1205"
      },
      "additionalContracts": [
        {
          "transactionType": "CREATE",
          "address": "0x54bafb29453a49f9038b8d26ac4dc1bb652dba07",
          "initCode": "0x3d602d80600a3d3981f3363d3d373d3d3d363d73f34dcbc4721d0808c6efc98f3a739a98fd87a79a5af43d82803e903d91602b57fd5bf3"
        }
      ],
      "isFixedGasLimit": false
    },
    {
      "hash": null,
      "transactionType": "CALL",
      "contractName": null,
      "contractAddress": "0xddb711e1594a8d6a35473cddad611043c8711ceb",
      "function": "createAndJoinCircle((string,uint256,uint256,uint256,uint256,uint256,uint8))",
      "arguments": [
        "(Moigye Test Gamma, 200000000000000, 900, 5, 500000000000000, 2000, 0)"
      ],
      "transaction": {
        "from": "0x32fe11d9900d63350016374be98ff37c3af75847",
        "to": "0xddb711e1594a8d6a35473cddad611043c8711ceb",
        "gas": "0xac37b",
        "value": "0x1c6bf52634000",
        "input": "0xdf0faf9c000000000000000000000000000000000000000000000000000000000000002000000000000000000000000000000000000000000000000000000000000000e00000000000000000000000000000000000000000000000000000b5e620f48000000000000000000000000000000000000000000000000000000000000000038400000000000000000000000000000000000000000000000000000000000000050000000000000000000000000000000000000000000000000001c6bf5263400000000000000000000000000000000000000000000000000000000000000007d0000000000000000000000000000000000000000000000000000000000000000000000000000000000000000000000000000000000000000000000000000000114d6f6967796520546573742047616d6d61000000000000000000000000000000",
        "nonce": "0x1c",
        "chainId": "0x1205"
      },
      "additionalContracts": [
        {
          "transactionType": "CREATE",
          "address": "0x8f1f79b4cf474e583a32d28da6f10a9f954416ae",
          "initCode": "0x3d602d80600a3d3981f3363d3d373d3d3d363d73f34dcbc4721d0808c6efc98f3a739a98fd87a79a5af43d82803e903d91602b57fd5bf3"
        }
      ],
      "isFixedGasLimit": false
    }
  ],
  "receipts": [],
  "libraries": [],
  "pending": [],
  "returns": {},
  "timestamp": 1767182743,
  "chain": 4613,
  "commit": null
}