{
  "transactions": [
    {
      "hash": "0xc5e2282ba628186b8b71baf19b9d3a08e229411d2f4ef62e7331d28dc802b062",
      "transactionType": "CALL",
      "contractName": null,
      "contractAddress": "0xddb711e1594a8d6a35473cddad611043c8711ceb",
      "function": "createAndJoinCircle((string,uint256,uint256,uint256,uint256,uint256,uint8))",
      "arguments": [
        "(Moigye Test Gamma, 200000000000000, 900, 5, 500000000000000, 2000, 0)"
      ],
      "transaction": {
        "from": "0x32fe11d9900d63350016374be98ff37c3af75847",
        "to": "0xddb711e1594a8d6a35473cddad611043c8711ceb",
        "gas": "0xac37b",
        "value": "0x1c6bf52634000",
        "input": "0xdf0faf9c000000000000000000000000000000000000000000000000000000000000002000000000000000000000000000000000000000000000000000000000000000e00000000000000000000000000000000000000000000000000000b5e620f48000000000000000000000000000000000000000000000000000000000000000038400000000000000000000000000000000000000000000000000000000000000050000000000000000000000000000000000000000000000000001c6bf5263400000000000000000000000000000000000000000000000000000000000000007d0000000000000000000000000000000000000000000000000000000000000000000000000000000000000000000000000000000000000000000000000000000114d6f6967796520546573742047616d6d61000000000000000000000000000000",
        "nonce": "0x24",
        "chainId": "0x1205"
      },
      "additionalContracts": [
        {
          "transactionType": "CREATE",
          "address": "0x8f1f79b4cf474e583a32d28da6f10a9f954416ae",
          "initCode": "0x3d602d80600a3d3981f3363d3d373d3d3d363d73f34dcbc4721d0808c6efc98f3a739a98fd87a79a5af43d82803e903d91602b57fd5bf3"
        }
      ],
      "isFixedGasLimit": false
    }
  ],
  "receipts": [
    {
      "status": "0x1",
      "cumulativeGasUsed": "0x7caec",
      "logs": [
        {
          "address": "0xddb711e1594a8d6a35473cddad611043c8711ceb",
          "topics": [
            "0x412de2aa742ad510b540b8503f245d8b3da90ff3bbc38970bc98f7fe4ae0e3d0",
            "0x0000000000000000000000000000000000000000000000000000000000000002",
            "0x00000000000000000000000032fe11d9900d63350016374be98ff37c3af75847"
          ],
          "data": "0x00000000000000000000000000000000000000000000000000000000000001000000000000000000000000008f1f79b4cf474e583a32d28da6f10a9f954416ae0000000000000000000000000000000000000000000000000000b5e620f48000000000000000000000000000000000000000000000000000000000000000038400000000000000000000000000000000000000000000000000000000000000050000000000000000000000000000000000000000000000000001c6bf5263400000000000000000000000000000000000000000000000000000000000000007d0000000000000000000000000000000000000000000000000000000000000000000000000000000000000000000000000000000000000000000000000000000114d6f6967796520546573742047616d6d61000000000000000000000000000000",
          "blockHash": "0xa9cecf940f83a2695ad8a0671f969c8c5fb43c8c60087232e88f07dfc45ad651",
          "blockNumber": "0x3f0a46",
          "transactionHash": "0xc5e2282ba628186b8b71baf19b9d3a08e229411d2f4ef62e7331d28dc802b062",
          "transactionIndex": "0x0",
          "logIndex": "0x0",
          "removed": false
        },
        {
          "address": "0x8f1f79b4cf474e583a32d28da6f10a9f954416ae",
          "topics": [
            "0xf4f82575ee84a81aac4be52b6a368e9ba9df524b4f5cf8177d7cfbabe861820c",
            "0x0000000000000000000000000000000000000000000000000000000000000002",
            "0x00000000000000000000000032fe11d9900d63350016374be98ff37c3af75847"
          ],
          "data": "0x0000000000000000000000000000000000000000000000000001c6bf52634000",
          "blockHash": "0xa9cecf940f83a2695ad8a0671f969c8c5fb43c8c60087232e88f07dfc45ad651",
          "blockNumber": "0x3f0a46",
          "transactionHash": "0xc5e2282ba628186b8b71baf19b9d3a08e229411d2f4ef62e7331d28dc802b062",
          "transactionIndex": "0x0",
          "logIndex": "0x1",
          "removed": false
        }
      ],
      "logsBloom": "0x04000000000000000000000000000000000200040000000000000000000000000000000000000000000000000000000000000000000000000000000000000000000800000000000000000000000000000000200004000000000000000000000000001000000000000000000000000100400000000080000000000000400000000000000000000000000000000000000000000002000000000000000000000000000000000000000000000100000000000000000000000000000000000000000000000010000000000000000000000000000000000000000000000010000000000000000000000020000000000000000000000800008000000000000000000000",
      "type": "0x2",
      "transactionHash": "0xc5e2282ba628186b8b71baf19b9d3a08e229411d2f4ef62e7331d28dc802b062",
      "transactionIndex": "0x0",
      "blockHash": "0xa9cecf940f83a2695ad8a0671f969c8c5fb43c8c60087232e88f07dfc45ad651",
      "blockNumber": "0x3f0a46",
      "gasUsed": "0x7caec",
      "effectiveGasPrice": "0x746a528807",
      "from": "0x32fe11d9900d63350016374be98ff37c3af75847",
      "to": "0xddb711e1594a8d6a35473cddad611043c8711ceb",
      "contractAddress": null
    }
  ],
  "libraries": [],
  "pending": [],
  "returns": {},
  "timestamp": 1767182862,
  "chain": 4613,
  "commit": null
}